:020000040005F5
:2060000000800020CD750500EF750500E76E0500ED750500ED750500ED75050000000000A1
:20602000000000000000000000000000ED750500ED75050000000000ED750500ED750500C4
:20604000ED750500ED750500ED75050000000000ED750500ED750500ED750500ED7505006F
:2060600000000000ED750500ED750500ED750500ED750500ED750500ED750500ED7505004F
:20608000ED750500ED750500ED750500ED750500ED750500ED750500ED750500ED750500C8
:2060A000ED750500ED750500ED750500ED750500ED750500ED750500ED750500ED750500A8
:1860C000ED750500ED750500ED7505000000000000000000ED7505002C
:2060D8002DE9F04F9BB0C7484FF47051006801EA8020C549086000F055FE002800F0C680EB
:2060F80003AC0DF138094FF0FC0A4FF0000B5FFA8BF008212246000300F04AFF204601F013
:2061180069F970B9204601F055F940B90BF1010B5FFA8BF02C28EAD34FF0FE0B01E04FF0E9
:20613800FF0B4FFA8BF8B8F1000F00F19D804FEA083634214A46304600F02AFF9DF84800E3
:20615800FE2811D19DF8440003280DD19DF84500012809D19DF84900FC2805D01499199F24
:20617800C819B0F5801F02D90BF1010BBFE73846012200F03BF90028F6D19DF84800FE28A2
:20619800F2D138462C2122468DF80BA000F000FF0999384600F0B2FF05460130E4D00A983F
:2061B800A842E1D309994A199042DDD838462A4600F05AFD824646F0100001210DF10B022D
:2061D80000F09EFDBAF1000F4FF0010A4FF0000247D18548099B009200220168C5F3473002
:2061F80000F01EFA0599884227D1FE2001216E0B8DF80B004FEA48300DF10B08113042464B
:2062180000F07EFDF0B211214246012301F034F814992846002200F0E9F89DF81E1007295D
:2062380015D80AFA01F111F08B0F10D078B900F0EFFF0A9801F0C3F909E0FC2001210DF165
:206258000B028DF80B0007F1110000F059FDFC2001210DF10B028DF80B0007F1100000F069
:206278004FFD4FF0FC0A7FE700F0D2FF4FF000080EAC01254FF0FE0A0DF10C0900264FF068
:20629800000B30462146082201F050F8204601F091F888B1304621462C2201F047F89DF892
:2062B8004A00072808D805FA00F010F08A0F03D0149B581C022807D20BF1010B06F5005693
:2062D800BBF12C0FDDD13FE0B3F5B02FF4D81598B042F1D3F1188842EED89DF8440003289F
:2062F800EAD19DF845000128E6D19DF84900FE281FD0FF28E0D13C4800228DF80CA0CDF8AA
:20631800008001685FFA8BF000F08AF907461098494687421CBFFC208DF80C0006F1110058
:20633800012200F08FFF10988742C5D11499304601E030461946002200F058F80028BBD1AE
:20635800159801F03CF9B7E700F01CFD002842D00EAA0020342100F01BFE9DF84900FE2837
:2063780039D11499199D4819B0F5801F33D8284600F0C4FE044601302DD01598A0422AD3C4
:2063980014990A19904226D82846224600F06CFCF8B91548149B0022016800200090C4F368
:2063B800473000F03DF91099884212D1600BFE2101238DF80C10C0B203AA112100F05CFFE7
:2063D80014992046002200F011F810B9159801F0F6F800F01DFF01F05CF800201BB0BDE841
:2063F800F08F00BF30240340A82800202DE9F04FC1B0002900F0F98093468146B1F5801F83
:2064180003D9BBF1000F40F0F080FF20BBF1000F37D08DF84300002001EB090501F081F800
:20643800119011AC82465FEAC87026D0304601213A4600F0ADFD9DF8430003280FD006F11C
:206458000800A84219D8301D0421224600F0A0FD11984FF001080644AE42E4D90DE04FF0C6
:20647800000815360421CDF81080304604AA00F08FFD049901200029D4D15FEACA703BD17C
:20649800B3E0B1F5B02F00F2B1808DF84300002001EB090401F045F80DF1440A1190054662
:2064B8005FEAC87026D030463946012200F03EFF9DF8430003280FD006F10800A04219D854
:2064D800301D5146042200F031FF11984FF001080644A642E4D90DE04FF0000815360422F5
:2064F800CDF81080304604A900F020FF049901200029D4D1E80778D0BBF1000F3FD004ADBF
:20651800484630212A4600F043FD9DF83F00FC286BD0414C4FF4A051204600F0D5FF3D4E3B
:2065380048468121324600F033FD06F1390000F0BBFF074600285ED1354948464FF48052DC
:20655800012300F06FFA002854D007460078002850D00DF14408C021404600F0B5FF2F4980
:2065780006F1610006F141033A468DE8110101F017F807460020CFB3A52F37D03BE004ACD4
:2065980048463022214600F0D1FE9DF83F00FC282BD01F4948464FF48052002300F042FA90
:2065B800C8B105460078B0B11A4E49468122304600F064FF11A8194906F141032A4602906B
:2065D8001548019006F16100009000F0E9FFA52801D100200AE0FC2004F12F0101228DF863
:2065F8003F0009F12F0000F02DFEFF2040B241B0BDE8F08FFF27FC2005F12F0201218DF8CA
:206618003F0009F12F0000F07BFB3846EEE700BF241700202428002000030020547F0500C0
:206638002DE9F04F8BB08046581C022803D200200BB0BDE8F08F14981E460C46B3F5801FD1
:2066580001D90028F3D1B6F5B02F01D90028EED0069238B14A4A404600214FF4807300F030
:2066780051FE06E0464808FB04F14FF4807200F005FF701E0123424F4FF0FF39B0FBF4F1D4
:2066980001FB1400013082B2C5B2100A002D18BF03EB12200190424608BF4FF48075059506
:2066B800029401EB0800C0B208900898D3B2834263D801984FF0FF3118BF200A51FA80F144
:2066D8000792C0B20A91099003FB04F0002400F580700490501C039009985FFA84FB5845BF
:2066F80048D90A984FF480769A4645465845059808BF0646089883424FF4807018BF064613
:20671800079880EA08004FF0000820430006069808BF00F10C081FFA88F086420AD9385C66
:206738005FFA89F1484000F025FE80EA192908F10108F0E7149830B10A9858450CD103980A
:206758000021C0B20DE004984FF4807200EB0B21384600F093FE09E04FF4807000EB0B2187
:2067780050463A464FF4807300F0CCFDA84653460134B1E7DDE9024297E76FEA090057E780
:20679800242700202DE9F0470C4631498046344F154608688946800744BF2E48C8602E48DC
:2067B800002101602D488246006838688169272088472C4E2C49306B08403063B06F20F462
:2067D8008070B0673868016B4FF4806088473868016B4FF4816088473868016B4FF4C0602E
:2067F8008847224801210160C6F880413160D9F80000800705D4681C08BF4FF04045C9F8B4
:206818000C50DAF80000F0698007FCD5072000F013FC0228FAD1B8F1000F13D1144C386AC8
:206838008168204688470428F9D0012804D1386A0321426820469047D6F8180220F0030087
:20685800C6F818023868806BBDE8F047004700BF10000940FD0000400C4009402C2009401B
:20687800B80100100C200840FFFFFEFE28200860004003402DE9F04104462E482E4B41686D
:20689800890705D40168F02242EA114183F84D102A4F98462A492B4A3B68002B0ED4D7F8E8
:2068B800EC5085F0C00581F831500C2505EAD363C03313704FF40033C1F884304FF001233E
:2068D800214EC2F8C231098831680968856828468847A80108D4E80106D598F8000041465F
:2068F80040F0020088F8000030682946426820469047D7F80001154AC0F305311170C10581
:206918004FF0130158BF2321402308F80130382101EA901000F56050A2F85C00306881681D
:2069380028468847022000F005FC094801210160BDE8F081AC4F0050096208400C13005098
:2069580000A00C4042A20C40F00100100EB00C409404604270B52548066800F01BFD24484A
:206978000025244C0560206C806C80472248006838B122480068B6F1FF3018BF3046FFF720
:2069980079FF1F4840F2391205601E48016862F31B4101601C48016801F44051B1F5805F65
:2069B80006D10168194A114001F5003202600160174D0126EE612068016A142088471548B3
:2069D800016841F4E021016013482E60006800F44000B0F5000F03D1206C416C0F48884733
:2069F8000F4801680029FCD170BD00BF1C13005084046042B001001080012843800520439F
:206A18008C2108404820034028000940EFFFFCFC0000244300200940B44F0050BD378600CA
:206A38000C0068422DE9F04F9BB09A4614468B4680462BB1404621465A4600F0A9FA04E037
:206A580058464146224600F019FDDBF81800002847D00DF10409484600F096FD234D0BF1D9
:206A78000C0148460422A8470BF1120148462F22A8470BF18101A4F181024846A847DBF88B
:206A9800180004EB08072546061BCEB1BAF1000F05D0384629465A4600F07AFA04E0AAB2FD
:206AB8005846394600F0EAFC484659462A4600F071FD761B27443546A64288BF2546E4E7F4
:206AD8000B4C01A8214600F059FD00210020202903D0625C01311043F9E7002808BF044638
:206AF80000E0002420461BB0BDE8F08FAD750500001700202DE9F04FA5B00F460DF10C08B6
:206B18002F9905469B461446404600F015FADDF8C090264E20464946B04709F12004284679
:206B38002146B04709F1400538462946B04709F1600A58465146B04709F1800B2E98594642
:206B5800B0471B480D9E1B4F214606600820C6F8DC04C6F8B804C6F89404C6F87004C6F85B
:206B78004C0406F58A60B84706F274402946B84706F593604946B84706F2BC405146B847A9
:206B980006F59C605946B84706F2DC4006F5976106F58E6206F29443CDE9001006F24C413C
:206BB800404600F027FC25B0BDE8F08FE9740500340100200D7505002DE9FF41254E0546D9
:206BD80088463068416906208847062000F056FA0128FAD13068C1694FF4A06088471E4C00
:206BF8001E4F0120206038688007FCD53068C1694FF4807088470120206038688007FCD51A
:206C1800174F184900220023386920F00F0038610320F861F06804680820CDE900504FF04A
:206C38008040A04756F8040C082109224FF0FF33446C4FF08040CDF80080A047386840F0C7
:206C58000200386003ACF06800F0AFFC0028FAD1BDE8FF81B80100102820086028200840BF
:206C780004000040006CDC022DE9F043C1B0814690070DD188180D461446411E1F480068FD
:206C9800B1FBF0F1B2FBF0F68E4298BF2C2904D9FF2040B241B0BDE8F083B5FBF0F101FBBC
:206CB8001050002818BF0131C8B250FA86F7F0B2874205D900F092FA0136FF28F7D1E7E731
:206CD8004FF480760DF10408B5B1B0B24246854238BF2E46B7B24846394600F059F90028F7
:206CF800D6D0204641463A4600F0ACFA0028CFD1ED1B3C44B944E7E70020CAE7A8280020F7
:206D18002DE9F84F06461E4814460D464FF002094FF0000AE84683467DB300F0D9F848BB21
:206D380000F0DAFA30BB300A8DF800908DF803608DF80200300C8DF80100F0B28BF800A047
:206D5800C0F580774046BD4238BF2F46042100F0ADFA60B92046394600F0A8FA38B901211F
:206D7800ED1B3E4458463C448BF80010D4E701208BF800000020BDE8F88F0120BDE8F88FC8
:206D980014200240BCB518480A21FFF715FF17480068C16B14208847154C0125AB200121F5
:206DB80025708DF80700002020700DF1070000F07DFA257088B94FF4C870ADF80400BDF8CF
:206DD8000400BDF8040028B1BDF804000138ADF80400F6E700F07CF818B100F019FA00203D
:206DF800BCBD00F007F8BCBD00093D00B401001014200240BCB51648164D04210190002011
:206E1800287001A800F052FA10B10120287007E0114C0221204600F0A9F90121297008B190
:206E38000020BCBD0D4B2278647803F12001186840B11D79AA4202D15D79AC4201D0083328
:206E5800F5E71946064A0028116018BF0120BCBD90FFFF0014200240A5280020F07505002A
:206E780020170020F0B540F6FF7C10F8013B0024082CFAD00646DF0716F8015B0AD14678B2
:206E980006F00F070337122F0AD187783A0609D403300DE001F8015B304601345B08E7E70B
:206EB800023006E0C27807F07F07043047EAC2171237320942EA0515654508BFF0BDED4395
:206ED800002FEAD04A5D013F0A700131F8E7FEE72DE9F843174E05204FF000088DF80300B0
:206EF80086F8008000F0BEFA4FF001090DF103040DF10205022786F800902046012186F844
:206F1800008000F0D3F92846012100F02FF986F8009000284FF001009DF8021008BF27EA80
:206F380041000028E9D002280CBF00206FF00100BDE8F88314200240F0B50E4CDFF82CC04A
:206F5800DFF82CE00D4D0E4E0E4F0F4A0F4B8162032101704462084CC0E90127C0E903651C
:206F7800C0E905ECC0E90734F0BD00BFCC760500A8760500847605003C7605006076050014
:206F9800187605001477050038770500F07605007CB515460C460646FFF79AFF0146002077
:206FB80001B17CBD03218DF807608DF80410310A8DF80610310C0B4E8DF80510042130705A
:206FD80001A800F073F918B10120307000207CBD2846214600F0CAF8B0FA80F001214009A5
:206FF80031707CBD1420024070B5104C2068016A4FF4807088470E4E0E4D012030602868BB
:207018008007FCD52068016A4FF4A06088470120306028688007FCD52068816906208847FB
:20703800062000F02BF80228FAD170BDB801001028200860282008400F49C3070A68496D8A
:2070580001D1002106E001F0040102F00103C91818BF0121830744BF02F0020341EA530176
:20707800400744BF02F0040041EA90010220002918BF0120704700BF402108400F49C30778
:207098000A68496D01D1012106E001F0040102F00103C91818BF0121830744BF02F002038C
:2070B80001EA5301400744BF02F0040001EA90010220002918BF0120704700BF402108405B
:2070D80070B50A480A4C84420DD00A4D0A48461B4EB1D5E9000110F8012B54F822209047C7
:2070F800083E0835F4E700BF00BF70BD847705007877050098770500A8770500FEB50C463E
:2071180005462C276E4678190C213246FFF740FF58B19DF8000001280AD001994FF0FF30F1
:2071380011B10F44A742EED3FEBD4FF0FF30FEBD0298FEBDB0B50A490A4A0B4B0C684D68B4
:20715800AC42FCD1844208BFB0BD155C145DAC424FF0FF3538BF01252C441C5D0C60EDE7D9
:2071780000600C406C77050070770500F8B50C4F0C4605466E466CB13868002182684FF017
:207198008040904740B100F0EDF90098013C05F8010BF0E70020F8BD4FF0FF30F8BD00BF0D
:2071B800C401001070B50B4E0B4C3068816820468847054600060AD0306800214268204663
:2071D800904730688168204688470028F9D1E8B270BD00BFD801001000400340B0B5044677
:2071F800FFF7E0FF0546600300F020F904462DB1054801210068426804489047E0B2002865
:2072180018BFFF20B0BD00BFD8010010004003407CB5B9200A4D0024012101268DF807006E
:207238000DF107002C7000F041F82E70092C04D80134FFF7DFFD0028F8D1FFF7D5FE7CBDC3
:2072580014200240F8B514460D460646FFF7AAFF00F08EF904462FB1054801210068426839
:2072780004489047002C18BFFF242046F8BD00BFD801001000400340F8B51C46154601EB11
:207298004036FFF78FFF00F073F904462FB1054801210068426804489047002C18BFFF248C
:2072B8002046F8BDD801001000400340F8B5094F0C4605466E4654B1386815F8011B426861
:2072D8004FF08040904700F04DF9013CF3E70020F8BD00BFC4010010BCB50620084C0121FD
:2072F80001258DF80700002020700DF10700FFF7DDFF2570002818BF6FF00200BCBD00BF10
:207318001420024070B51C46154601EB403600F001F9210405D016F8011B013C05F8011B37
:20733800F7E708B900F018F9002070BD70B514460D46064600F0EEF82CB116F8011B013C10
:2073580005F8011BF8E708B900F006F9002070BD074880F3088800BF00BF00F035F908B179
:20737800FFF7AEFE0020FEF7ABFE012000F02EF90080002010B5064A08210B0608BF10BDDA
:2073980082EA5003C40708BF430801391846F4E72083B8ED0448054900680840044988421D
:2073B80008BF7047FEE700BF1813005000F0FF0F00A0B70BB0B5064907231A46002B04D477
:2073D8008C5C855C531EA542F7D0D00FB0BD00BF64770500B0B5064907231A46002B04D481
:2073F8008C5C855C531EA542F7D0D00FB0BD00BF5C77050010B5054CD4F800C0029C0294D4
:20741800039C0394BDE81040604700BFAC00001080B5044B1B689B699847034900220A6045
:2074380080BD00BFA80100108404604280B50449096849698847034900220A6080BD00BF0D
:20745800A80100108404604210B54AB110F8013B11F8014B013AA3421CBF012010BDF4E714
:20747800002010BDBCB5044D01AC286800F09DF80028FAD1BCBD00BFC4010010B0B538B135
:20749800431E013922B18D5C541E9D542246F9E7B0BD80B500F05AF8002000214FF0FF323D
:2074B800BDE88040FFF76EB980B5034908220431FFF7CAFFC0B280BD547F05000B46114664
:2074D8001A4600F035B800BF0A46002100F030B81F22531C08BF7047835C013A01F8013BD2
:2074F800F7E710B500239A4208BF10BDCC5CC4540133F8E70022202A08BF70478B5C835443
:207518000132F8E780B50A46D0F803101046FFF7DBFF80BD80B500F019F8002818BF012028
:2075380080BD09F12C064FF001080DF14307704700239A4208BF7047C1540133F9E70B468C
:20755800D0F80320C11D184600F042B80020EFF3108072B6704770470020EFF3108062B630
:207578007047704738683146C2684FF0804010470746284631462246FFF74ABF014A126890
:20759800104700BFC400001001490968084700BFBC000010014B1B68184700BFC000001097
:2075B80001F10C002C31FFF7A5BA214602694FF080401047FFF7CEF9FFF7CABEFEE7016852
:1875D80081F30888406800470120704700BFFEE7FFF787BFFEE7FEE726
:2075F00000002000C215000000001000C214000000000800EF12000000000400EF11000091
:20761000000000000000000008000000FCFFFFFFFFFFFFFFFFFFFFFF000000000000000061
:207630000000000001000000FFFFFFFFFCFFFFFFFFFFFFFFFFFFFFFF030000000000000049
:207650000000000004000000FCFFFFFF00000000080000004B60D2273E3CCE3BF6B053CC29
:20767000B0061D65BC86987655BDEBB3E7933AAAD835C65ADFBDC42962DF9CD8903084783D
:20769000CD05F0ACD62E21F7AB20A2E5344887041D0630DC000000000800000096C298D8F8
:2076B0004539A1F4A033EB2D817D0377F240A463E5E6BCF847422CE1F2D1176B08000000A9
:2076D000F551BF376840B6CBCE5E316B5733CE2B169E0F7C4AEBE78E9B7F1AFEE242E34F79
:2076F0000300000000000000FFFFFFFFFBFFFFFFFEFFFFFFFFFFFFFFFDFFFFFF040000008E
:207710000000000008000000512563FCC2CAB9F3849E17A7ADFAE6BCFFFFFFFFFFFFFFFF23
:2077300000000000FFFFFFFF08000000FFFFFFFFFFFFFFFFFFFFFFFF000000000000000041
:207750000000000001000000FFFFFFFF4F4144204E564D31434332367832523101020003E5
:04777000020001030F
:207778007D6E0500577505001D750500000100000F9128FFF0000000020000008811000046
:107798008477050000030020907705002417002057
:207F5400014C0000B0177D511DEC108BD851BCA2ED3D9E19B733A52F33DA05404D137650E9
:207F74003D88DF5CD0E2F2583053C42AB92ABEEF665FECCF5616CC36EF2DC95E462B7C3B97
:0C7F940009C19956D9AF958163237BE7A2
:207FA80000008001100080FFFDFF5800FFFFBBF3FFFFFFFFFFFFFFFFFFFFFFFFFFFFFFFFB9
:207FC800FFFFFFFFFFFFFFFFFFFFFFFFFFFFFFFFFFFFFF00FFFFFFFF00FFFFFF00C5C5FF2A
:187FE800000000FF00600500FFFFFFFFFFFFFFFFFFFFFFFFFFFFFFFF2D
:00000001FF
