:020000040005F5
:20600000008000203768050057680500536805005568050055680500556805000000000072
:20602000000000000000000000000000556805005568050000000000556805005568050058
:206040005568050055680500556805000000000055680500556805005568050055680500F2
:206060000000000055680500556805005568050055680500556805005568050055680500D2
:206080005568050055680500556805005568050055680500556805005568050055680500F0
:2060A0005568050055680500556805005568050055680500556805005568050055680500D0
:1860C000556805005568050055680500000000000000000055680500C0
:2060D8002DE9F04F8BB08046581C022803D200200BB0BDE8F08F14981E460C46B3F5801F37
:2060F80001D90028F3D1B6F5B02F01D90028EED0069238B14A4A404600214FF4807300F096
:20611800E9FA06E0464808FB04F14FF4807200F045FB701E0123424F4FF0FF39B0FBF4F169
:2061380001FB1400013082B2C5B2100A002D18BF03EB12200190424608BF4FF4807505956B
:20615800029401EB0800C0B208900898D3B2834263D801984FF0FF3118BF200A51FA80F1A9
:206178000792C0B20A91099003FB04F0002400F580700490501C039009985FFA84FB584524
:2061980048D90A984FF480769A4645465845059808BF0646089883424FF4807018BF064678
:2061B800079880EA08004FF0000820430006069808BF00F10C081FFA88F086420AD9385CCC
:2061D8005FFA89F1484000F0ABFA80EA192908F10108F0E7149830B10A9858450CD10398EE
:2061F8000021C0B20DE004984FF4807200EB0B21384600F0D3FA09E04FF4807000EB0B21B1
:2062180050463A464FF4807300F064FAA84653460134B1E7DDE9024297E76FEA090057E750
:20623800000300202DE9F0470C4631498046344F154608688946800744BF2E48C8602E4889
:20625800002101602D488246006838688169272088472C4E2C49306B08403063B06F20F4C7
:206278008070B0673868016B4FF4806088473868016B4FF4816088473868016B4FF4C06093
:206298008847224801210160C6F880413160D9F80000800705D4681C08BF4FF04045C9F819
:2062B8000C50DAF80000F0698007FCD5072000F061F90228FAD1B8F1000F13D1144C386AE3
:2062D8008168204688470428F9D0012804D1386A0321426820469047D6F8180220F00300ED
:2062F800C6F818023868806BBDE8F047004700BF10000940FD0000400C4009402C20094081
:20631800B80100100C200840FFFFFEFE28200860004003402DE9F04104462E482E4B4168D2
:20633800890705D40168F02242EA114183F84D102A4F98462A492B4A3B68002B0ED4D7F84D
:20635800EC5085F0C00581F831500C2505EAD363C03313704FF40033C1F884304FF00123A3
:20637800214EC2F8C231098831680968856828468847A80108D4E80106D598F800004146C4
:2063980040F0020088F8000030682946426820469047D7F80001154AC0F305311170C105E6
:2063B8004FF0130158BF2321402308F80130382101EA901000F56050A2F85C003068816883
:2063D80028468847022000F033F9094801210160BDE8F081AC4F0050096208400C130050D3
:2063F80000A00C4042A20C40F00100100EB00C409404604270B52548066800F0A1F924482E
:206418000025244C0560206C806C80472248006838B122480068B6F1FF3018BF3046FFF785
:2064380079FF1F4840F2391205601E48016862F31B4101601C48016801F44051B1F5805FCA
:2064580006D10168194A114001F5003202600160174D0126EE612068016A14208847154818
:20647800016841F4E021016013482E60006800F44000B0F5000F03D1206C416C0F48884798
:206498000F4801680029FCD170BD00BF1C13005084046042B0010010800128438005204304
:2064B8008C2108404820034028000940EFFFFCFC0000244300200940B44F0050BD37860030
:2064D8000C00684270B590B002AE0D46002108230446324600F0FEF8304600F041F90028CA
:2064F80043D002AA204600212C2300F0F3F89DF81A00A84239D1079800F066F9A8B39DF893
:206518001400032831D19DF8150001282DD19DF81900FC2829D0FF2819D19DF81A00072897
:2065380015D1FE20089B00228DF8070010480168002000902046FFF7C3FD049988420AD11F
:206558000DF1070220461121012300F0A9F8099800F06AF909E0FC200DF107021121012379
:206578008DF80700204600F09BF810B070BD00BF000400200F49C3070A68496D01D1002181
:2065980006E001F0040102F00103C91818BF0121830744BF02F0020341EA5301400744BFEA
:2065B80002F0040041EA90010220002918BF0120704700BF4021084010B50C484FF4705192
:2065D800006801EA80200A49086000200721FFF779FF0124E0B22B2804D80021FFF772FFD1
:2065F8000134F7E700F0E5F8002010BD302403400004002070B50A480A4C84420DD00A4D34
:206618000A48461B4EB1D5E9000110F8012B54F822209047083E0835F4E700BF00BF70BD4F
:206638007468050070680500746805007C680500B0B50A490A4A0B4B0C684D68AC42FCD174
:20665800844208BFB0BD155C145DAC424FF0FF3538BF01252C441C5D0C60EDE700600C40F3
:20667800606805006468050070B50B4E0B4C3068816820468847054600060AD030680021F5
:2066980042682046904730688168204688470028F9D1E8B270BD00BFD80100100040034061
:2066B800F8B51C46154601EB4036FFF7DDFF00F0B0F804462FB10548012100684268044895
:2066D8009047002C18BFFF242046F8BDD80100100040034070B51C46154601EB403600F0EA
:2066F80085F8210405D016F8011B013C05F8011BF7E708B900F087F8002070BD074880F36E
:20671800088800BF00BF00F094F808B1FFF772FF0020FFF751FF012000F08DF8008000201B
:2067380010B5064A08210B0608BF10BD82EA5003C40708BF430801391846F4E72083B8ED07
:2067580004480549006808400449884208BF7047FEE700BF1813005000F0FF0F00A0B70BC3
:20677800B0B5064907231A46002B04D48C5C855C531EA542F7D0D00FB0BD00BF5868050008
:2067980080B5044B1B689B699847034900220A6080BD00BFA801001084046042B0B538B1F2
:2067B800431E013922B18D5C541E9D542246F9E7B0BD80B500F021F8002000214FF0FF3263
:2067D800BDE88040FFF72EBD002118B1421E01311040FAE7012088437047D0F8030000221E
:2067F80018B101F8012B0138FAE7704780B500F004F8002818BF012080BD0020EFF31080B2
:2068180072B6704770470020EFF3108062B6704770470746284631462246FFF7B1BFFFF7BC
:20683800E9FDFFF76BBFFEE7016881F30888406800470120704700BFFEE7FEE7FEE7FEE7CE
:106858004343323678325231010200030200010309
:146868000000000004010000F36705006868050000030020C0
:00000001FF
