:020000040005F5
:206000000080002091640500AF640500DB620500AD640500AD640500AD640500000000004A
:20602000000000000000000000000000AD640500AD64050000000000AD640500AD64050008
:20604000AD640500AD640500AD64050000000000AD640500AD640500AD640500AD640500A6
:2060600000000000AD640500AD640500AD640500AD640500AD640500AD640500AD64050086
:20608000AD640500AD640500AD640500AD640500AD640500AD640500AD640500AD64050050
:2060A000AD640500AD640500AD640500AD640500AD640500AD640500AD640500AD64050030
:1860C000AD640500AD640500AD6405000000000000000000AD64050070
:2060D8002DE9F04104462E482E4B4168890705D40168F02242EA114183F84D102A4F9846EE
:2060F8002A492B4A3B68002B0ED4D7F8EC5085F0C00581F831500C2505EAD363C0331370E5
:206118004FF40033C1F884304FF00123214EC2F8C231098831680968856828468847A80197
:2061380008D4E80106D598F80000414640F0020088F8000030682946426820469047D7F821
:206158000001154AC0F305311170C1054FF0130158BF2321402308F80130382101EA901071
:2061780000F56050A2F85C003068816828468847022000F0EDF8094801210160BDE8F081CD
:20619800AC4F0050096208400C13005000A00C4042A20C40F00100100EB00C409404604219
:2061B80070B52548066800F015F924480025244C0560206C806C80472248006838B12248FF
:2061D8000068B6F1FF3018BF3046FFF779FF1F4840F2391205601E48016862F31B41016084
:2061F8001C48016801F44051B1F5805F06D10168194A114001F5003202600160174D012645
:20621800EE612068016A142088471548016841F4E021016013482E60006800F44000B0F59A
:20623800000F03D1206C416C0F4888470F4801680029FCD170BD00BF1C13005084046042B9
:20625800B001001080012843800520438C2108404820034028000940EFFFFCFC0000244333
:2062780000200940B44F0050BD3786000C00684270B58EB06E460C460021082305463246A2
:2062980000F082F8304600F0B5F8C0B16A46284600212C2300F078F89DF81200A0420ED1A2
:2062B800059800F0C7F850B19DF80C00032806D19DF80D00012802D1079800F0E2F80EB011
:2062D80070BDFEE710B50D4C2068416904208847042000F01BF80128FAD12068C1694FF441
:2062F800A0608847064801210160064801688907FCD5054801210160416010BDB8010010C7
:206318002820086028200840181A44420F49C3070A68496D01D1012106E001F0040102F061
:206338000103C91818BF0121830744BF02F0020301EA5301400744BF02F0040001EA9001E8
:206358000220002918BF0120704700BF40210840B0B50A490A4A0B4B0C684D68AC42FCD17D
:20637800844208BFB0BD155C145DAC424FF0FF3538BF01252C441C5D0C60EDE700600C40D6
:20639800B8640500BC64050070B51C46154601EB403600F058F8210405D016F8011B013CBA
:2063B80005F8011BF7E708B900F05AF8002070BD00200721FFF75CFF0124E0B22B2804D8FF
:2063D8000021FFF755FF0134F7E7FFF77BFF00F04DF8FCE70448054900680840044988423E
:2063F80008BF7047FEE700BF1813005000F0FF0F00A0B70BB0B5064907231A46002B04D447
:206418008C5C855C531EA542F7D0D00FB0BD00BFB0640500064880F3088800BF00BF00F099
:2064380035F80020FFF7C4FF012000F031F800BF00800020002118B1421E01311040FAE7F8
:2064580001208843704780B500F004F8002818BF012080BD0020EFF3108072B670477047DB
:206478000020EFF3108062B670477047014801210170704706200240FFF792FEFFF7CABFEC
:18649800FEE7016881F30888406800470120704700BFFEE7FEE7FEE765
:1064B00043433236783252310102000302000103B5
:00000001FF
