:020000040005F5
:2060000000800020B76C0500D96C0500B3680500D36C0500D36C0500D36C05000000000082
:20602000000000000000000000000000D36C0500D36C050000000000D36C0500D36C050050
:20604000D36C0500D36C0500D36C050000000000D36C0500D36C0500D36C0500D36C050064
:2060600000000000D36C0500D36C0500D36C0500D36C0500D36C0500D36C0500D36C050044
:20608000D36C0500D36C0500D36C0500D36C0500D36C0500D36C0500D36C0500D36C0500E0
:2060A000D36C0500D36C0500D36C0500D36C0500D36C0500D36C0500D36C0500D36C0500C0
:1860C000D36C0500D36C0500D36C05000000000000000000D36C0500B8
:2060D8002DE9F04FE3B00FAE0D46002108230446324600F0BFFC304600F014FD002800F068
:2060F800B5800FAA204600212C2300F0B3FC9DF84E00A84240F0AA80149800F067FD0028D6
:2061180000F0A4809DF84800032840F09F809DF84900012840F09A809DF84D00FC2800F0B5
:2061380095809DF84E10072900D0B1B9FF2814D1FE20159B00228DF8CC005C48016800205B
:206158000090204600F0BCF81199884275D133AA20461121012300F063FC159800EB4436D9
:20617800B6F5B02F72D89DF84E00072801D000286CD14FEA4439FF204FF001080DF1CB0500
:206198000DF1CC0B8DF8CB00002049F02C07339082465FEAC87026D038462946012200F034
:2061B8006DFC9DF8CB0003280FD007F10800B04219D8381D5946042200F060FC33984FF0A1
:2061D80001080744B742E4D90DE04FF0000815370422CDF80C80384603A900F04FFC0399A5
:2061F80001200029D4D15FEACA702FD02046002103AA302300F02EFC9DF83B00FE284BD064
:20621800FF2823D1DFF8A88003A84FF4A05100F12F0A404600F0D6FC264D484681222946E8
:2062380000F02CFC05F1390000F0BCFC88B1FC202F2152468DF83B0004E0FC2011218DF8A3
:20625800CC0033AA2046012300F0EAFB63B0BDE8F08F194948464FF48052002300F094FA41
:206278000028E4D007465846C02100F0ABFC134905F1610005F141033A468DE8010900F0EB
:2062980009FDA528D3D1FE202F21524601238DF83B00204600F0C4FB16984845D6D31599DE
:2062B8004944884298BF00F0FFFCCFE7A4280020000300202028002020170020547F0500D1
:2062D8002DE9F04F8BB08046581C022803D200200BB0BDE8F08F14981E460C46B3F5801F35
:2062F80001D90028F3D1B6F5B02F01D90028EED0069238B14A4A404600214FF4807300F094
:20631800A9FB06E0464808FB04F14FF4807200F033FC701E0123424F4FF0FF39B0FBF4F1B7
:2063380001FB1400013082B2C5B2100A002D18BF03EB12200190424608BF4FF48075059569
:20635800029401EB0800C0B208900898D3B2834263D801984FF0FF3118BF200A51FA80F1A7
:206378000792C0B20A91099003FB04F0002400F580700490501C039009985FFA84FB584522
:2063980048D90A984FF480769A4645465845059808BF0646089883424FF4807018BF064676
:2063B800079880EA08004FF0000820430006069808BF00F10C081FFA88F086420AD9385CCA
:2063D8005FFA89F1484000F07DFB80EA192908F10108F0E7149830B10A9858450CD1039819
:2063F8000021C0B20DE004984FF4807200EB0B21384600F0C1FB09E04FF4807000EB0B21C0
:2064180050463A464FF4807300F024FBA84653460134B1E7DDE9024297E76FEA090057E78D
:20643800202700202DE9F0470C4631498046344F154608688946800744BF2E48C8602E4843
:20645800002101602D488246006838688169272088472C4E2C49306B08403063B06F20F4C5
:206478008070B0673868016B4FF4806088473868016B4FF4816088473868016B4FF4C06091
:206498008847224801210160C6F880413160D9F80000800705D4681C08BF4FF04045C9F817
:2064B8000C50DAF80000F0698007FCD5072000F021FA0228FAD1B8F1000F13D1144C386A20
:2064D8008168204688470428F9D0012804D1386A0321426820469047D6F8180220F00300EB
:2064F800C6F818023868806BBDE8F047004700BF10000940FD0000400C4009402C2009407F
:20651800B80100100C200840FFFFFEFE28200860004003402DE9F04104462E482E4B4168D0
:20653800890705D40168F02242EA114183F84D102A4F98462A492B4A3B68002B0ED4D7F84B
:20655800EC5085F0C00581F831500C2505EAD363C03313704FF40033C1F884304FF00123A1
:20657800214EC2F8C231098831680968856828468847A80108D4E80106D598F800004146C2
:2065980040F0020088F8000030682946426820469047D7F80001154AC0F305311170C105E4
:2065B8004FF0130158BF2321402308F80130382101EA901000F56050A2F85C003068816881
:2065D80028468847022000F0F3F9094801210160BDE8F081AC4F0050096208400C13005011
:2065F80000A00C4042A20C40F00100100EB00C409404604270B52548066800F073FA244859
:206618000025244C0560206C806C80472248006838B122480068B6F1FF3018BF3046FFF783
:2066380079FF1F4840F2391205601E48016862F31B4101601C48016801F44051B1F5805FC8
:2066580006D10168194A114001F5003202600160174D0126EE612068016A14208847154816
:20667800016841F4E021016013482E60006800F44000B0F5000F03D1206C416C0F48884796
:206698000F4801680029FCD170BD00BF1C13005084046042B0010010800128438005204302
:2066B8008C2108404820034028000940EFFFFCFC0000244300200940B44F0050BD3786002E
:2066D8000C0068422DE9F04FA5B00F460DF10C082F9905469B461446404600F0DFF8DDF86B
:2066F800C090264E20464946B04709F1200428462146B04709F1400538462946B04709F1CB
:20671800600A58465146B04709F1800B2E985946B0471B480D9E1B4F214606600820C6F8BF
:20673800DC04C6F8B804C6F89404C6F87004C6F84C0406F58A60B84706F274402946B84753
:2067580006F593604946B84706F2BC405146B84706F59C605946B84706F2DC4006F597617F
:2067780006F58E6206F29443CDE9001006F24C41404600F0D7F925B0BDE8F08FF76B050056
:20679800340100201B6C05002DE9F0439BB00746894608461646394600F0EEF9D9F8180067
:2067B800E8B30DF10408404600F068FA1E4C09F10C0140460422A04709F1120140462F225C
:2067D800A04709F18101A6F181024046A047D9F8180037443446851B85B1A2B248463946A2
:2067F80000F0CAF940464946224600F04DFA2D1B37442C46B54288BF3446EDE70B4C01A859
:20681800214600F035FA00210020202903D0625C01311043F9E7002808BF044600E000241D
:2068380020461BB0BDE8F083A16C050000170020F0B540F6FF7C10F8013B0024082CFAD0F2
:206858000646DF0716F8015B0AD1467806F00F070337122F0AD187783A0609D403300DE04D
:2068780001F8015B304601345B08E7E7023006E0C27807F07F07043047EAC217123732093E
:2068980042EA0515654508BFF0BDED43002FEAD04A5D013F0A700131F8E7FEE7F0B50E4C0D
:2068B800DFF82CC0DFF82CE00D4D0E4E0E4F0F4A0F4B8162032101704462084CC0E9012711
:2068D800C0E90365C0E905ECC0E90734F0BD00BF906D05006C6D0500486D0500006D050099
:2068F800246D0500DC6C0500D86D0500FC6D0500B46D05000F49C3070A68496D01D1002182
:2069180006E001F0040102F00103C91818BF0121830744BF02F0020341EA5301400744BF66
:2069380002F0040041EA90010220002918BF0120704700BF4021084010B50C484FF470510E
:20695800006801EA80200A49086000200721FFF7B7FB0124E0B22B2804D80021FFF7B0FBD9
:206978000134F7E700F013F9002010BD30240340A428002070B50A480A4C84420DD00A4DB9
:206998000A48461B4EB1D5E9000110F8012B54F822209047083E0835F4E700BF00BF70BDCC
:2069B8003C6E0500306E0500506E0500606E0500B0B50A490A4A0B4B0C684D68AC42FCD191
:2069D800844208BFB0BD155C145DAC424FF0FF3538BF01252C441C5D0C60EDE700600C4070
:2069F800286E05002C6E050070B50B4E0B4C3068816820468847054600060AD030680021D6
:206A180042682046904730688168204688470028F9D1E8B270BD00BFD801001000400340DD
:206A3800F8B51C46154601EB4036FFF7DDFF00F019F904462FB105480121006842680448A7
:206A58009047002C18BFFF242046F8BDD80100100040034070B51C46154601EB403600F066
:206A7800E0F8210405D016F8011B013C05F8011BF7E708B900F0F0F8002070BD70B5144669
:206A98000D46064600F0CDF82CB116F8011B013C05F8011BF8E708B900F0DEF8002070BD7A
:206AB800074880F3088800BF00BF00F002F908B1FFF760FF0020FFF73FFF012000F0FBF89D
:206AD8000080002010B5064A08210B0608BF10BD82EA5003C40708BF430801391846F4E70C
:206AF8002083B8ED04480549006808400449884208BF7047FEE700BF1813005000F0FF0F3A
:206B180000A0B70BB0B5064907231A46002B04D48C5C855C531EA542F7D0D00FB0BD00BFC7
:206B3800206E050010B5054CD4F800C0029C0294039C0394BDE81040604700BFAC00001087
:206B580080B5044B1B689B699847034900220A6080BD00BFA80100108404604210B54AB1BC
:206B780010F8013B11F8014B013AA3421CBF012010BDF4E7002010BDB0B538B1431E0139CA
:206B980022B18D5C541E9D542246F9E7B0BD80B500F05CF8002000214FF0FF32BDE880407A
:206BB800FFF740BC80B5034908220431FFF7D6FFC0B280BD547F05000B4611461A4600F0A1
:206BD80037B800BF0A46002100F032B8002118B1421E01311040FAE70120884370471F2213
:206BF800531C08BF7047835C013A01F8013BF7E710B500239A4208BF10BDCC5CC454013397
:206C1800F8E70022202A08BF70478B5C83540132F8E780B50A46D0F803101046FFF7D2FF46
:206C380080BD80B500F012F8002818BF012080BD00239A4208BF7047C1540133F9E70B467C
:206C5800D0F80320C11D184600F038B80020EFF3108072B6704770470020EFF3108062B643
:206C7800704770470746284631462246FFF768BF014A1268104700BFC4000010014909686D
:206C9800084700BFBC000010014B1B68184700BFC000001001F10C002C31FFF713BDFFF72E
:206CB800A9FCFFF7FDBEFEE7016881F30888406800470120704700BFFEE7FEE7FFF798BF77
:026CD800FEE7D5
:206CDC0008000000FCFFFFFFFFFFFFFFFFFFFFFF000000000000000000000000010000009E
:206CFC00FFFFFFFFFCFFFFFFFFFFFFFFFFFFFFFF0300000000000000000000000400000084
:206D1C00FCFFFFFF00000000080000004B60D2273E3CCE3BF6B053CCB0061D65BC869876E2
:206D3C0055BDEBB3E7933AAAD835C65ADFBDC42962DF9CD890308478CD05F0ACD62E21F778
:206D5C00AB20A2E5344887041D0630DC000000000800000096C298D84539A1F4A033EB2DC1
:206D7C00817D0377F240A463E5E6BCF847422CE1F2D1176B08000000F551BF376840B6CB7F
:206D9C00CE5E316B5733CE2B169E0F7C4AEBE78E9B7F1AFEE242E34F030000000000000018
:206DBC00FFFFFFFFFBFFFFFFFEFFFFFFFFFFFFFFFDFFFFFF040000000000000008000000C6
:206DDC00512563FCC2CAB9F3849E17A7ADFAE6BCFFFFFFFFFFFFFFFF00000000FFFFFFFF6D
:206DFC0008000000FFFFFFFFFFFFFFFFFFFFFFFF000000000000000000000000010000007A
:146E1C00FFFFFFFF434332367832523101020003020001033F
:206E300049680500576C05002B6C0500000100000F8D28FFF00000000200000088110000D9
:106E50003C6E050000030020486E0500201700204E
:207F5400014C0000B0177D511DEC108BD851BCA2ED3D9E19B733A52F33DA05404D137650E9
:207F74003D88DF5CD0E2F2583053C42AB92ABEEF665FECCF5616CC36EF2DC95E462B7C3B97
:0C7F940009C19956D9AF958163237BE7A2
:00000001FF
