:020000040005F5
:2060000000800020BB700500DD700500A36A0500D7700500D7700500D77005000000000068
:20602000000000000000000000000000D7700500D770050000000000D7700500D770050030
:20604000D7700500D7700500D770050000000000D7700500D7700500D7700500D77005002C
:2060600000000000D7700500D7700500D7700500D7700500D7700500D7700500D77005000C
:20608000D7700500D7700500D7700500D7700500D7700500D7700500D7700500D7700500A0
:2060A000D7700500D7700500D7700500D7700500D7700500D7700500D7700500D770050080
:1860C000D7700500D7700500D77005000000000000000000D770050098
:2060D8002DE9F04F9BB0A8484FF47051006801EA8020A649086000F033FC8346002800F0CA
:2060F800F58003AD0DF1380A4FF000085FFA88F008212A46000300F0FDFC284600F040FFE9
:2061180070B9284600F02CFF40B908F101085FFA88F02C28EAD34FF0FE0801E04FF0FF086C
:206138004FFA88F9B9F1000F00F192804FEA093434215246204600F0DDFC9DF84800FE282C
:2061580040F083809DF8440003287ED19DF8450001287AD19DF84900FC2876D01498199FA7
:206178003844B0F5801F70D8FC202C212A468DF80B00384600F0BEFC0999384600F094FDCD
:206198000646013061D00A98B0425ED30999314488425AD80C983246801B411C3846099135
:2061B80000F040FBCDF804B0834644F0100001210DF10B0200F082FBBBF1000FDDF804B038
:2061D80043D16A48099B0022016800200090C6F3473000F0CDF80599884222D1FE20740B25
:2061F8000DF10B0601218DF80B004FEA49303246113000F063FBE0B211213246012300F0BD
:2062180011FE9DF81E00072815D8012101FA00F010F08B0F0FD000F0D1FD0A9800F046FF6D
:2062380009E0FC2001210DF10B028DF80B0007F1110000F043FBFC2001210DF10B028DF87F
:206258000B0007F1100000F039FB08F101084DE700F0B4FD00250EAE012428463146082203
:2062780000F03AFE304600F07BFE50B3284631462C2200F031FE9DF84A00072821D804FAA5
:2062980000F010F08A0F1CD01499481C022818D3B1F5B02F15D81598A84212D32944884226
:2062B8000FD89DF8441003290BD19DF84510012907D19DF84910FE2901D0FF2901D100F032
:2062D800F5FE05F50055B5F5B02FC6D100F038FBE0B30EAA0020342100F00CFC9DF849008B
:2062F800FE2833D11499199D4819B0F5801F2DD8284600F0D9FC0446013027D01598A0421B
:2063180024D314990A19904220D82846224600F089FAC8B91548149B0022016800200090C3
:20633800C4F3473000F024F8109988420CD1600BFE2101238DF80C10C0B203AA112100F02B
:2063580071FD159800F0B2FE00F038FDBBF1000F05D000F058FE00201BB0BDE8F08F00F070
:206378001DFC00F093FEFEE730240340000400202DE9F04F8BB08046581C022803D20020E2
:206398000BB0BDE8F08F14981E460C46B3F5801F01D90028F3D1B6F5B02F01D90028EED04D
:2063B800069238B14A4A404600214FF4807300F07FFD06E0464808FB04F14FF4807200F0D6
:2063D80017FE701E0123424F4FF0FF39B0FBF4F101FB1400013082B2C5B2100A002D18BF3C
:2063F80003EB12200190424608BF4FF480750595029401EB0800C0B208900898D3B2834235
:2064180063D801984FF0FF3118BF200A51FA80F10792C0B20A91099003FB04F0002400F51A
:2064380080700490501C039009985FFA84FB584548D90A984FF480769A464546584505980A
:2064580008BF0646089883424FF4807018BF0646079880EA08004FF00008204300060698F7
:2064780008BF00F10C081FFA88F086420AD9385C5FFA89F1484000F053FD80EA192908F128
:206498000108F0E7149830B10A9858450CD103980021C0B20DE004984FF4807200EB0B2158
:2064B800384600F0A5FD09E04FF4807000EB0B2150463A464FF4807300F0FAFCA8465346C8
:2064D8000134B1E7DDE9024297E76FEA090057E7000300202DE9F0470C4631498046344F2A
:2064F800154608688946800744BF2E48C8602E48002101602D488246006838688169272054
:2065180088472C4E2C49306B08403063B06F20F48070B0673868016B4FF480608847386857
:20653800016B4FF4816088473868016B4FF4C0608847224801210160C6F880413160D9F8D8
:206558000000800705D4681C08BF4FF04045C9F80C50DAF80000F0698007FCD5072000F0FD
:2065780041FB0228FAD1B8F1000F13D1144C386A8168204688470428F9D0012804D1386A81
:206598000321426820469047D6F8180220F00300C6F818023868806BBDE8F047004700BF98
:2065B80010000940FD0000400C4009402C200940B80100100C200840FFFFFEFE282008601C
:2065D800004003402DE9F04104462E482E4B4168890705D40168F02242EA114183F84D10BD
:2065F8002A4F98462A492B4A3B68002B0ED4D7F8EC5085F0C00581F831500C2505EAD363FF
:20661800C03313704FF40033C1F884304FF00123214EC2F8C2310988316809688568284694
:206638008847A80108D4E80106D598F80000414640F0020088F8000030682946426820464A
:206658009047D7F80001154AC0F305311170C1054FF0130158BF2321402308F80130382151
:2066780001EA901000F56050A2F85C003068816828468847022000F033FB0948012101600A
:20669800BDE8F081AC4F0050096208400C13005000A00C4042A20C40F00100100EB00C4038
:2066B8009404604270B52548066800F049FC24480025244C0560206C806C804722480068DC
:2066D80038B122480068B6F1FF3018BF3046FFF779FF1F4840F2391205601E48016862F3E9
:2066F8001B4101601C48016801F44051B1F5805F06D10168194A114001F50032026001600E
:20671800174D0126EE612068016A142088471548016841F4E021016013482E60006800F4EF
:206738004000B0F5000F03D1206C416C0F4888470F4801680029FCD170BD00BF1C130050F9
:2067580084046042B001001080012843800520438C2108404820034028000940EFFFFCFC6B
:206778000000244300200940B44F0050BD3786000C0068422DE9FF41254E05468846306834
:20679800416906208847062000F04EFA0128FAD13068C1694FF4A06088471E4C1E4F012024
:2067B800206038688007FCD53068C1694FF4807088470120206038688007FCD5174F184925
:2067D80000220023386920F00F0038610320F861F06804680820CDE900504FF08040A047AF
:2067F80056F8040C082109224FF0FF33446C4FF08040CDF80080A047386840F00200386019
:2068180003ACF06800F048FC0028FAD1BDE8FF81B8010010282008602820084004000040C0
:20683800006CDC022DE9F043C1B0814690070DD188180D461446411E1F480068B1FBF0F1F8
:20685800B2FBF0F68E4298BF2C2904D9FF2040B241B0BDE8F083B5FBF0F101FB1050002805
:2068780018BF0131C8B250FA86F7F0B2874205D900F08AFA0136FF28F7D1E7E74FF48076CC
:206898000DF10408B5B1B0B24246854238BF2E46B7B24846394600F02DF90028D6D0204694
:2068B80041463A4600F0A4FA0028CFD1ED1B3C44B944E7E70020CAE7000400202DE9F84FBE
:2068D80006461E4814460D464FF002094FF0000AE84683467DB300F0D9F848BB00F0D2FA07
:2068F80030BB300A8DF800908DF803608DF80200300C8DF80100F0B28BF800A0C0F58077A4
:206918004046BD4238BF2F46042100F0A5FA60B92046394600F0A0FA38B90121ED1B3E4495
:2069380058463C448BF80010D4E701208BF800000020BDE8F88F0120BDE8F88F1420024020
:20695800BCB518480A21FFF715FF17480068C16B14208847154C0125AB20012125708DF895
:206978000700002020700DF1070000F075FA257088B94FF4C870ADF80400BDF80400BDF87C
:20699800040028B1BDF804000138ADF80400F6E700F07CF818B100F011FA0020BCBD00F0D9
:2069B80007F8BCBD00093D00B401001014200240BCB51648164D042101900020287001A87D
:2069D80000F04AFA10B10120287007E0114C0221204600F0A1F90121297008B10020BCBD8D
:2069F8000D4B2278647803F12001186840B11D79AA4202D15D79AC4201D00833F5E71946CB
:206A1800064A0028116018BF0120BCBD90FFFF001420024004040020E07005000804002057
:206A3800F0B540F6FF7C10F8013B0024082CFAD00646DF0716F8015B0AD1467806F00F0741
:206A58000337122F0AD187783A0609D403300DE001F8015B304601345B08E7E7023006E043
:206A7800C27807F07F07043047EAC2171237320942EA0515654508BFF0BDED43002FEAD008
:206A98004A5D013F0A700131F8E7FEE72DE9F843174E05204FF000088DF8030086F80080DF
:206AB80000F09AFA4FF001090DF103040DF10205022786F800902046012186F8008000F03A
:206AD800CBF92846012100F027F986F8009000284FF001009DF8021008BF27EA41000028DC
:206AF800E9D002280CBF00206FF00100BDE8F883142002407CB515460C460646FFF7C6FFD5
:206B18000146002001B17CBD03218DF807608DF80410310A8DF80610310C0B4E8DF805105C
:206B38000421307001A800F097F918B10120307000207CBD2846214600F0EEF8B0FA80F0A7
:206B58000121400931707CBD1420024070B5104C2068016A4FF4807088470E4E0E4D012014
:206B7800306028688007FCD52068016A4FF4A06088470120306028688007FCD52068816975
:206B980006208847062000F04FF80228FAD170BDB8010010282008602820084010B50D4C42
:206BB8002068416904208847042000F03DF80128FAD12068C1694FF4A06088470648012127
:206BD8000160064801688907FCD5054801210160416010BDB80100102820086028200840DD
:206BF800181A44420F49C3070A68496D01D1002106E001F0040102F00103C91818BF0121DC
:206C1800830744BF02F0020341EA5301400744BF02F0040041EA90010220002918BF01201A
:206C3800704700BF402108400F49C3070A68496D01D1012106E001F0040102F00103C9182C
:206C580018BF0121830744BF02F0020301EA5301400744BF02F0040001EA90010220002959
:206C780018BF0120704700BF4021084070B50A480A4C84420DD00A4D0A48461B4EB1D5E9AE
:206C9800000110F8012B54F822209047083E0835F4E700BF00BF70BD2C7105002071050001
:206CB8004071050050710500FEB50C4605462C276E4678190C213246FFF71CFF58B19DF804
:206CD800000001280AD001994FF0FF3011B10F44A742EED3FEBD4FF0FF30FEBD0298FEBD99
:206CF800B0B50A490A4A0B4B0C684D68AC42FCD1844208BFB0BD155C145DAC424FF0FF35F9
:206D180038BF01252C441C5D0C60EDE700600C40187105001C710500F8B50C4F0C460546A4
:206D38006E466CB13868002182684FF08040904740B100F09FF90098013C05F8010BF0E7BB
:206D58000020F8BD4FF0FF30F8BD00BFC401001070B50B4E0B4C30688168204688470546B9
:206D780000060AD03068002142682046904730688168204688470028F9D1E8B270BD00BF4D
:206D9800D801001000400340B0B50446FFF7E0FF0546600300F012F904462DB105480121AB
:206DB8000068426804489047E0B2002818BFFF20B0BD00BFD8010010004003407CB5B92034
:206DD8000A4D0024012101268DF807000DF107002C7000F041F82E70092C04D80134FFF7A7
:206DF800E7FD0028F8D1FFF7B1FE7CBD14200240F8B514460D460646FFF7AAFF00F040F9E4
:206E180004462FB1054801210068426804489047002C18BFFF242046F8BD00BFD8010010A3
:206E380000400340F8B51C46154601EB4036FFF78FFF00F025F904462FB105480121006858
:206E5800426804489047002C18BFFF242046F8BDD801001000400340F8B5094F0C460546FE
:206E78006E4654B1386815F8011B42684FF08040904700F0FFF8013CF3E70020F8BD00BF66
:206E9800C4010010BCB50620084C012101258DF80700002020700DF10700FFF7DDFF25702A
:206EB800002818BF6FF00200BCBD00BF1420024070B51C46154601EB403600F0C1F821049A
:206ED80005D016F8011B013C05F8011BF7E708B900F0CAF8002070BD70B514460D46064689
:206EF80000F0AEF82CB116F8011B013C05F8011BF8E708B900F0B8F8002070BD074880F338
:206F1800088800BF00BF00F0D6F808B1FFF7AEFE0020FFF7D5F8012000F0CFF800800020D7
:206F380010B5064A08210B0608BF10BD82EA5003C40708BF430801391846F4E72083B8EDFF
:206F580004480549006808400449884208BF7047FEE700BF1813005000F0FF0F00A0B70BBB
:206F7800B0B5064907231A46002B04D48C5C855C531EA542F7D0D00FB0BD00BF107105003F
:206F9800B0B5064907231A46002B04D48C5C855C531EA542F7D0D00FB0BD00BF0871050027
:206FB80080B5044B1B689B699847034900220A6080BD00BFA80100108404604280B5044996
:206FD800096849698847034900220A6080BD00BFA801001084046042BCB5044D01AC2868F1
:206FF80000F05AF80028FAD1BCBD00BFC4010010B0B538B1431E013922B18D5C541E9D542F
:207018002246F9E7B0BD80B500F028F8002000214FF0FF32BDE88040FFF75CBA10B5002354
:207038009A4208BF10BDCC5CC4540133F8E7D0F80300002218B101F8012B0138FAE77047C9
:2070580080B500F00BF8002818BF012080BD0B46D0F80320C11D184600F032B80020EFF33F
:20707800108072B6704770470020EFF3108062B67047704738683146C2684FF08040104723
:207098000746284631462246FFF78ABF014801210170704706200240214602694FF0804033
:2070B8001047FFF7FFFAFFF729BFFEE7016881F30888406800470120704700BFFEE7FEE7F2
:0670D800FFF7ACBFFEE76C
:2070E00000002000C215000000001000C214000000000800EF12000000000400EF110000A6
:2071000000000000000000004F4144204E564D314343323678325231010200030200010332
:20712000396A050067700500477005000000000002000000060100000001000000FFF00016
:10714000307105000003002038710500080400209C
:207FA80000008001100080FFFDFF5800FFFFBBF3FFFFFFFFFFFFFFFFFFFFFFFFFFFFFFFFB9
:207FC800FFFFFFFFFFFFFFFFFFFFFFFFFFFFFFFFFFFFFF00FFFFFFFF00FFFFFF00C5C5FF2A
:187FE800000000FF00600500FFFFFFFFFFFFFFFFFFFFFFFFFFFFFFFF2D
:00000001FF
